:020000040000FA
:0400000080319A2889
:100008007E1480318B1E09280A2836280B1D0D28DE
:100018000E2836280B1101302100A8070030A93D11
:100028002908803A2000EF0021006608803A200065
:100038006F02031D2228210065082802031C2528B9
:10004800262836282100650A031D2F28660A031969
:100058002E282F283628A801A901103020008D0647
:1000680040308D068B1D39283A2898280B1C3D28CE
:100078003E2898282700161D4228432898280B1048
:10008800161120000D1D49284A284E28960197016F
:100098001814982818103C30B0008C30AF007E300F
:1000A800AE002830AD001608F0001708F100F20184
:1000B800F30100308B313423803173082000B40001
:1000C8007208B3007108B2007008B1008031B22024
:1000D8008031200030082100E40020002F08210092
:1000E800E30020002E082100E20020002D08210056
:1000F800E10064082000EE00210063082000ED0004
:10010800210062082000EC00210061082000EB00BB
:100118008D31A525803120006C082100AB0020001E
:100128006B082100AA0067147E10090080319C2802
:1001380021008731FC278031E5008731FD27803198
:10014800E600E701A0308400003085002C308731BC
:10015800F62780317E10200088315E282000300884
:100168008039B5003508BA003035B5003508C0000B
:10017800AF1FBF28C028C128401440080319C5284C
:10018800C628D528400A031DCA28CB28D328003002
:10019800B0000030AF000030AE000030AD00AF1747
:1001A800DD280030B0000030AF000030AE00003075
:1001B800AD0034088039B5003508BA063435B500C5
:1001C8003508BF00B31FE928EA28EB283F143F0889
:1001D8000319EF28F028FF283F0A031DF428F52803
:1001E800FD280030B4000030B3000030B200003009
:1001F800B100B31707290030B4000030B300003055
:10020800B2000030B1003F0803190B290C2911294D
:100218004008031D102911291A290030B0000030A8
:10022800AF000030AE000030AD00082B2D08B5003F
:100238003508F00033088831C52080317108200066
:10024800C6007008C5004508B500B601B701B80179
:100258003808BE003708BD003608BC003508BB00AA
:100268004608B500B601B701B8013808C400370818
:10027800C3003608C2003508C1002E08B50035088D
:10028800F00032088831C520803171082000C6008E
:100298007008C5004508B500B601B701B8013508B2
:1002A800BB073608BC3D3708BD3D3808BE3D46088B
:1002B800B500B601B701B8013508C1073608C23D17
:1002C8003708C33D3808C43D2F08B5003508F0008D
:1002D80031088831C520803171082000C6007008B7
:1002E800C5004508B500B601B701B8013508BB0718
:1002F8003608BC3D3708BD3D3808BE3D4608B50048
:10030800B601B701B8013508C1073608C23D37083C
:10031800C33D3808C43D0830BB35BC0DBD0DBE0D0E
:10032800890B90292E08B5003508F000310888316E
:10033800C520803171082000C6007008C500450836
:10034800BB074608BC3D0030BD3DBE3D2D08B5008D
:100358003508F00032088831C52080317108200046
:10036800C6007008C5004508BB074608BC3D0030FC
:10037800BD3DBE3D0830BB35BC0DBD0DBE0D890B66
:10038800BF292D08B5003508F00031088831C5208F
:10039800803171082000C6007008C5004508BB07F9
:1003A8004608BC3D0030BD3DBE3D2E08B5003508B1
:1003B800F00033088831C520803171082000C6005C
:1003C8007008C5004508C1074608C23D0030C33D56
:1003D800C43D2F08B5003508F00032088831C52023
:1003E800803171082000C6007008C5004508C107A3
:1003F8004608C23D0030C33DC43D2F08B50035084E
:10040800F00033088831C520803171082000C6000B
:100418007008C5004508B5004608B600B701B80120
:100428000830B535B60DB70DB80D890B152A350846
:10043800C1073608C23D3708C33D3808C43D3B08EC
:10044800B5003C08B6003D08B7003E08B8001830B3
:10045800B836B70CB60CB50C890B2C2A3508C10771
:100468003608C23D3708C33D3808C43D0830BB359F
:10047800BC0DBD0DBE0D890B3B2A40083F07B500DA
:10048800B601B60D3508823EC500FF30363DC600C0
:10049800642A0130C135C20DC30DC40D890B4E2A23
:1004A800BE1F572A582A592A41140130BB35BC0DA2
:1004B800BD0DBE0D890B5A2AFF30C507FF30C63D5A
:1004C800C31F672A682A4D2ABF01BE1F6C2A6D2ADE
:1004D800892AFF303B05B500FF303C05B600FF30E8
:1004E8003D05B7007F303E05B800380837043604AC
:1004F80035040319802A812A842ABF01BF0A892A60
:10050800411C872A882A892A812A3F0803198D2AAB
:100518008E2AB62A0130C1070030C23D0030C33DE3
:100528000030C43D441C992A9A2AB62A4108B500CD
:100538004208B6004308B7004408B8000130B900C3
:10054800B837B70CB60CB50CB90BA42A3808C400D8
:100558003708C3003608C2003508C1000130C50796
:100568000030C63D4608803AB50080303502031D8C
:10057800BF2AFF304502031CC22AC32ACD2A7F3076
:100588002000C4008030C3000030C2000030C10029
:10059800FC2A20004608803AB50080303502031D49
:1005A800D72A013045020318DA2ADB2AE62A003066
:1005B8002000C4000030C3000030C2000030C10079
:1005C800BA01FC2A20004508B5003508C000FF30F4
:1005D800C105FF30C2057F30C3050030C405401C8B
:1005E800F62AF72AF82AC3174036B5003508C4009A
:1005F8003A08B5003508C4044408B0004308AF0001
:100608004208AE004108AD00080020004A088039C1
:10061800CF004F08D7004A35CF004F08D900C91F6F
:10062800162B172B182B5914590803191C2B1D2B83
:100638002D2B590A031D212B222B2A2B0030CA00EF
:100648000030C9000030C8000030C700C917CA010F
:10065800352B0030CA000030C9000030C800003017
:10066800C7004E088039CF004F08D80058085706F1
:1006780003193F2B402B412B57174E35CF004F08FE
:10068800D800CD1F482B492B4A2B5814580803195A
:100698004E2B4F2B5F2B580A031D532B542B5C2BCF
:1006A8000030CE000030CD000030CC000030CB0050
:1006B800CD17CE01672B0030CE000030CD000030C2
:1006C800CC000030CB005908580203186C2B6D2B56
:1006D800B12B571F702B712B752B8030CF004F0813
:1006E800D7065908CF004F08DA005808CF004F083E
:1006F800D9005A08CF004F08D8004708CF004F0844
:10070800DA004B08CF004F08C7005A08CF004F083F
:10071800CB004808CF004F08DA004C08CF004F083C
:10072800C8005A08CF004F08CC004908CF004F082E
:10073800DA004D08CF004F08C9005A08CF004F080B
:10074800CD004A08CF004F08DA004E08CF004F0806
:10075800CA005A08CF004F08CE00DA015808CF0067
:10076800D0015008D20059084F02D100031CD2030F
:100778005208803AD30080305302031DC52B1A302B
:100788005102031CC82BC92B012C20004A0849041C
:1007980048044704031DD12BD32B0130D42B003040
:1007A800CF004F08DA000030CA000030C90000301E
:1007B800C8000030C7005808CF004F08D900082CDF
:1007C8005A1CE72BE82BEE2B5A360138CF004F087E
:1007D800DA00F02B0310DA0C471CF32BF42BF52B63
:1007E800DA170130CF00CA37C90CC80CC70CCF0BB9
:1007F800F72B0130CF004F08D907200058085902BD
:10080800031C072C082CE42B571B0B2C0C2C442CFA
:100818005908031D102C112C1A2C0030CA00003066
:10082800C9000030C8000030C700402D4B08C7077A
:100838004C08C83D4D08C93D4E08CA3D4A1C252CE8
:10084800262CD02C5A1C292C2A2C302C5A3601380C
:10085800CF004F08DA00322C0310DA0C471C352C75
:10086800362C372CDA170130CF00CA37C90CC80C20
:10087800C70CCF0B392C0130CF004F08D907D02C2B
:100888004A08803ACF004E08803A4F02031D562C82
:100898004D084902031D562C4C084802031D562CCE
:1008A8004B0847020318592C5A2C922CFF30CF00C2
:1008B800FF30D000FF30D100FF30D20047084B0294
:1008C800D30048084C3BD40049084D3BD5004A08A2
:1008D8004E3BD6005308CF075408D03D5508D13DAC
:1008E8005608D23D5208CA005108C9005008C8002D
:1008F8004F08C7008030CF004F08D706DA09DA0A58
:100908005A08031D882C892C9A2C0130C7070030FF
:10091800C83D0030C93D0030CA3D9A2C4B08C7027B
:100928004C08C83B4D08C93B4E08CA3B4A08490415
:1009380048044704031DA12CA22CCC2C5A08031DE3
:10094800A62CA72CCC2C0030CA000030C9000030DF
:10095800C8000030C700402D0130C735C80DC90D8B
:10096800CA0D890BB12CDA1FBA2CBB2CBC2C47142E
:100978005A1CBF2CC02CC32C0314DA0DC52C031031
:10098800DA0D59080319C92CCA2CCC2C0130D9020C
:10099800C91FCF2CD02CB02CD801DA1FD42CD52CC1
:1009A800E32C5A087F390319DA2CDB2CDE2CD8010A
:1009B800D80AE32C471CE12CE22CE32CDB2C58084A
:1009C8000319E72CE82C152D0130C7070030C83D66
:1009D8000030C93D0030CA3D4A1CF32CF42C152DBB
:1009E8004708CF004808D0004908D1004A08D2007B
:1009F8000130D300D237D10CD00CCF0CD30BFE2C46
:100A08005208CA005108C9005008C8004F08C7005A
:100A1800590A0319102D112D152D0130CF004F083B
:100A2800D907590A0319192D1A2D1F2D5908031D05
:100A38001E2D1F2D2D2D0030CA000030C90000309A
:100A4800C8000030C7005908031D2B2D2C2D2D2D53
:100A5800D701591C302D312D332DC917372D7F3033
:100A6800CF004F08C9055936CF004F08CA00D71F15
:100A78003E2D3F2D402DCA17080077088039F80011
:100A880078082000A4007735F8007808AB00F61F36
:100A98004E2D4F2D502D2B142B080319542D552D49
:100AA800652D2B0A031D592D5A2D622D0030F70094
:100AB8000030F6000030F5000030F400F617F701BA
:100AC8006D2D0030F7000030F6000030F5000030E2
:100AD800F40073088039F8007808A4067335F80024
:100AE8007808AC00F21F792D7A2D7B2D2C142C0858
:100AF80003197F2D802D902D2C0A031D842D852D03
:100B08008D2D0030F3000030F2000030F10000308D
:100B1800F000F217F301982D0030F3000030F200D6
:100B28000030F1000030F0007308720471047004A2
:100B3800031D9F2DA02DB92D0030F7000030F600C1
:100B48000030F5000030F4008030F6047F30F70400
:100B58002408F8007808F7047708F3007608F2000C
:100B68007508F1007408F000F42E2B08031DBD2D44
:100B7800BE2DC72D0030F3000030F2000030F10028
:100B88000030F000F42E2B08F800F9017908FB007A
:100B98002C087802FA00031CFB037A087F3EA500A4
:100BA80000307B3DA6007708A3007608A2007508F0
:100BB800A1007408A0000030F7000030F6000030F3
:100BC800F5000030F4000030AA000030A900003021
:100BD800A8000030A700AC012F2E2C080319F52D12
:100BE800F62D102E0130A035A10DA20DA30D890BF5
:100BF800F72D0130F435F50DF60DF70D890BFE2DA7
:100C0800AA1F072E082E092E74140130A735A80D27
:100C1800A90DAA0D890B0A2E73082302031D1E2E87
:100C280072082202031D1E2E71082102031D1E2EAA
:100C380070082002031C212E222E2B2E2A17700842
:100C4800A0027108A13B7208A23B7308A33B0130C4
:100C5800F8007808AC071A302C02031C342E352E05
:100C6800F12D230822042104200403193C2E3D2ED3
:100C7800562E2714562E0130F435F50DF60DF70DC6
:100C8800890B402EAA1F492E4A2E4B2E7414013070
:100C9800A735A80DA90DAA0D890B4C2EFF30A50765
:100CA800FF30A63DF61F592E5A2E3F2EAC01AA1F23
:100CB8005E2E5F2E7B2EFF302705F800FF302805BB
:100CC800F900FF302905FA007F302A05FB007B0870
:100CD8007A04790478040319722E732E762EAC01E7
:100CE800AC0A7B2E741C792E7A2E7B2E732E2C0840
:100CF80003197F2E802EA82E0130F4070030F53D11
:100D08000030F63D0030F73D771C8B2E8C2EA82E38
:100D18007408F8007508F9007608FA007708FB00EF
:100D28000130FC00FB37FA0CF90CF80CFC0B962E82
:100D38007B08F7007A08F6007908F5007808F400CF
:100D48000130A5070030A63D2608803AF80080301B
:100D58007802031DB12EFF302502031CB42EB52ED8
:100D6800C22EFF302000A5000030A6000030F7009A
:100D78000030F6000030F5000030F40020002608AE
:100D8800803AF80080307802031DCC2E013025020D
:100D98000318CF2ED02EDC2E2000A501A60100308E
:100DA800F7000030F6000030F5000030F400A40130
:100DB80020002508F8007808AB002B1CE42EE52E4F
:100DC800E72EF617EB2E7F30F8007808F6052B365D
:100DD800F8007808F7002408F8007808F704B02D20
:100DE8000800F2012030860000308700473FF000FD
:100DF800F01FFF2E002F212F2000A009A109A20912
:100E0800A309A409A509A609A709A00A031D1F2F5C
:100E1800A10A031D1F2FA20A031D1F2FA30A031DCA
:100E28001F2FA40A031D1F2FA50A031D1F2FA60A83
:100E3800031D1F2FA70AF201F20A2830860000308E
:100E48008700473FF000F01F2A2F2B2F4E2F20003E
:100E5800A809A909AA09AB09AC09AD09AE09AF09E6
:100E6800A80A031D4A2FA90A031D4A2FAA0A031D0F
:100E78004A2FAB0A031D4A2FAC0A031D4A2FAD0A9D
:100E8800031D4A2FAE0A031D4A2FAF0A0130F00096
:100E98007008F20673308600003087000830F000D2
:100EA80000301E00F00B552F2000200821042204DA
:100EB800230424042504260427040319642F652F1A
:100EC800C12FF101F10A742FA035A10DA20DA30DB8
:100ED800A40DA50DA60DA70D0130F0007008F107AF
:100EE800A71F772F782F682FF335F40DF50DF60D22
:100EF800F70DF80DF90DFA0D27082F02031D9E2F87
:100F080026082E02031D9E2F25082D02031D9E2F45
:100F180024082C02031D9E2F23082B02031D9E2F3D
:100F280022082A02031D9E2F21082902031D9E2F35
:100F380020082802031CA12FA22FB32F2008A802E3
:100F48002108A93B2208AA3B2308AB3B2408AC3B59
:100F58002508AD3B2608AE3B2708AF3B7314A736E0
:100F6800A60CA50CA40CA30CA20CA10CA00C01307F
:100F7800F102031DC02FC12F782F72080319C52F46
:100F8800C62FE42FF309F409F509F609F709F8095A
:100F9800F909FA09F30A031DE42FF40A031DE42FE3
:100FA800F50A031DE42FF60A031DE42FF70A031DB3
:100FB800E42FF80A031DE42FF90A031DE42FFA0AA7
:100FC80073082000A0007408A1007508A200760824
:100FD800A3007708A4007808A5007908A6007A0875
:100FE800A7000800640080010131890BF72F003445
:060FF800FF34FF34080085
:10106C0023008D01873021008D000E1320000D17F9
:10107C000D128D16080023009F111E1533309B0096
:10108C001E129D172100911223009E1608002000AD
:10109C009601970118148D15003017020B300319A7
:1010AC001602031C5A285B2852288D1118100800B0
:1010BC008831362088318831412088318831A6200A
:1010CC0088312100671C6B286C28672867108831D1
:1010DC004D208831672880319A28F4007408F2007A
:1010EC007208F3007D280130F2007208F4077408CE
:1010FC00860087010108031D842885287928730838
:10110C007402F000F101F01BF10308007408803A3E
:10111C00F50080307502031D952801307302031809
:10112C0098289928A5287309F5007409F600F50A82
:10113C000319F60A7508F3007608F400A5280800D0
:10114C0027001415151516110B108B15210095126F
:10115C0015129511073095048B160B113F3020009A
:10116C0098051808CF391038980018102100111460
:10117C0020001110960197010B178B170800F8002F
:10118C00F401F5017008F200F3017208F60073081F
:10119C00F700781CD228D328D7287608F4077708CC
:1011AC00F53D0130F635F70D890BD8280310F80CF6
:1011BC007808031DE228E328CF287508F10074088D
:1011CC00F0000800F1008B13F201FE287208710781
:1011DC00F000700886008701010823009A002000A7
:1011EC00111EF928FA28F5280130F0007008F207D2
:1011FC0072087107F0007008860087010108031D52
:10120C0008290929EC288B1708002000A300A1014C
:10121C00A20123292008F900FA017908F0007A08C4
:10122C00F1007808FB007B08F20089318D218931AF
:10123C0001302000A1070030A23D21082307F9004E
:10124C007908860087010108FA007A08A0002008B6
:10125C00031D31293229102908002100CF006830E4
:10126C002000EA006A082100CE004F082000EA00A6
:10127C006A082100D000D101D201D301D401200091
:10128C006708DF006608DE00CE30EA006A08E0007E
:10129C00D03089315C218931210051084F07200061
:1012AC00EA006A0886008701810108002000E3003B
:1012BC005F08E5005E08E4002100A001A1017A2985
:1012CC006430E1006108CE006008E2006208CF00E3
:1012DC0063088B31E023893120004E082100A007E0
:1012EC0020004F082100A13D2000640884006508FF
:1012FC0085001200031D83298429662921002108F9
:10130C002000DF00210020082000DE000800720809
:10131C0003199129922997297208031D9629972957
:10132C009C2970088731FE278931DB297208033E1E
:10133C0086008701160001040319A529A629C329D3
:10134C007208033E86008701403FF300413FF400E2
:10135C00720A86008701403FF500413FF60076088F
:10136C00803AF7007408803A7702031DBF2973088E
:10137C0075020318C229C329DB297008F30072080F
:10138C0086008701720A8400850100080107F400B9
:10139C0074088600870173088100720A8600870131
:1013AC000130810741310318810A08002000AB008D
:1013BC002100261CE229E329EC2920002B08FC0043
:1013CC007C08F800240889310B2189312000A61BE8
:1013DC00F029F129F6292608AA002508A900F829E0
:1013EC00A901AA01A701A8010C2A2030F0000030A5
:1013FC00F10020002B08FC007C08F20089318D21C3
:10140C00893101302000A7070030A83D2808803A18
:10141C00FC002A08803A7C02031D162A29082702A0
:10142C00031C192A1A2AFB29210026181E2A1F2AF6
:10143C00282A20002B08FC007C08F800240889319D
:10144C000B21893120002408883173208931200038
:10145C0029087007A4002A08713DA5000800031094
:10146C0020005D0D5E0DDF005F08E5006508031DC3
:10147C00402A412A4A2A0030DE000030DD000030CC
:10148C00DC000030DB00A92A5B08DF005C08E00010
:10149C005D08E1005E08E2001F30E236E10CE00C72
:1014AC00DF0C890B532A5F08E3006308E400DD17A7
:1014BC00FF30DB05FF30DC05FF30DD050030DE05DD
:1014CC009630E502E51F6B2A6C2A842A6508803A5F
:1014DC00973E0318722A732A742A412A0130DE3689
:1014EC00DD0CDC0CDB0C890B752A0130DF005F088E
:1014FC00E507031D822A832A742A992A2030650263
:10150C00031C892A8A2A942A412A0130DB35DC0DF6
:10151C00DD0DDE0D890B8C2A0130E5026508031DFB
:10152C00982A992A8B2A640803199D2A9E2AA92A8B
:10153C00DB09DC09DD09DE09DB0A0319DC0A031906
:10154C00DD0A0319DE0A080000307005F8000030CF
:10155C007105F90080307205FA007F307305FB00CD
:10156C007B087A0479047804031DBD2ABE2AC62A96
:10157C000030F3000030F2000030F1000030F000D9
:10158C0000307405F80000307505F90080307605E0
:10159C00FA007F307705FB007B087A047904780425
:1015AC00031DD92ADA2AE22A0030F7000030F600AF
:1015BC000030F5000030F400F31FE52AE62AFE2A7D
:1015CC000030F8000030F9000030FA008030FB00E9
:1015DC007008F8027108F93B7208FA3B7308FB3B80
:1015EC007B08F3007A08F2007908F1007808F00023
:1015FC00F71F012B022B1A2B0030F8000030F900DA
:10160C000030FA008030FB007408F8027508F93BD2
:10161C007608FA3B7708FB3B7B08F7007A08F60064
:10162C007908F5007808F4008030F3068030F7066E
:10163C0077087302031D2C2B76087202031D2C2BCA
:10164C0075087102031D2C2B7408700203182F2BC4
:10165C00302B322B0310332B03140800F8007808BE
:10166C000319392B3A2B4E2BF31F3D2B3E2B4E2BB4
:10167C007009FA007109FB007209FC007309FD0086
:10168C00FA0A0319FB0A0319FC0A0319FD0A562B63
:10169C007308FD007208FC007108FB007008FA006A
:1016AC007308720471047004031D5D2B5E2B672B91
:1016BC000030F3000030F2000030F1000030F00098
:1016CC00DF2B9630F4007408F900772B0130F4000E
:1016DC007408F9070130FD36FC0CFB0CFA0C890B75
:1016EC00712BFE307D05031D7C2B7D2B6C2B912BE0
:1016FC000130F4007408F9070130FA070030FB3DA3
:10170C000030FC3D0030FD3D0130FD36FC0CFB0C87
:10171C00FA0C890B8B2BFF307D05031D962B972B19
:10172C007E2BA12B0130F9020130FA35FB0DFC0D9B
:10173C00FD0D890B9B2BFC1BA42BA52BAB2B02307B
:10174C0079020318AA2BAB2B982B7918AE2BAF2B45
:10175C00B72BFF30FA05FF30FB057F30FC05FF305F
:10176C00FD050310F90C7908F400F501F601F701F9
:10177C001830F435F50DF60DF70D890BBF2B7408E9
:10178C00FA047508FB047608FC047708FD04780855
:10179C000319D12BD22BD72BF31FD52BD62BD72B11
:1017AC00FD177D08F3007C08F2007B08F1007A0835
:1017BC00F00008002000DD004E0886008701403F45
:1017CC00D000413FD1005008840051088500120020
:1017DC00253A031DF22BF32B972C4E08860087011C
:1017EC000130810741310318810A2100A201A301B4
:1017FC00A601A701FF30A400FF30A50020004E0871
:10180C0086008701403FD000413FD1005008840042
:10181C00510885001200643A0319152C162C272C3C
:10182C004E0886008701403FD000413FD100500850
:10183C008400510885001200693A031D262C272CC0
:10184C00622C4E0886008701013081074131031854
:10185C00810A4F0886008701010884008501023047
:10186C008107003FD000013FD1005008D50051083E
:10187C00D600890D893B8909D700D800D900DA0038
:10188C00DB00DC005508B0005608B1005708B20068
:10189C005808B3005908B4005A08B5005B08B600E4
:1018AC005C08B7005D088E3192268B312000310820
:1018BC00CF003008CE00BA2C4E0886008701403F7E
:1018CC00D000413FD100500884005108850012001F
:1018DC00253A031D722C732C8C2C4E088600870124
:1018EC000130810741310318810A2530F0000030A6
:1018FC00F1005D08D0005008F20089318D218B3148
:10190C0001302000CE000030CF00BA2C4E088600EB
:10191C0087010130810741310318810ACE01CF01C3
:10192C00BA2C4E0886008701403FD000413FD100C1
:10193C0050088400510885000008D200D3015208D9
:10194C00F0005308F1005D08D4005408F20089310E
:10195C008D218B3120004E088600870101308107D4
:10196C0041310318810A862C0800F20128308600C8
:10197C0000308700473FF000F01FC52CC62CE72C29
:10198C002000A809A909AA09AB09AC09AD09AE093F
:10199C00AF09A80A031DE52CA90A031DE52CAA0A08
:1019AC00031DE52CAB0A031DE52CAC0A031DE52C2D
:1019BC00AD0A031DE52CAE0A031DE52CAF0AF2019E
:1019CC00F20A2030860000308700473FF000F01FFD
:1019DC00F02CF12C102D2000A009A109A209A309BB
:1019EC00A409A509A609A709A00A031D102DA10A7F
:1019FC00031D102DA20A031D102DA30A031D102D6B
:101A0C00A40A031D102DA50A031D102DA60A031DE3
:101A1C00102DA70A200020082104220423042404EA
:101A2C0025042604270403191C2D1D2D702DF101EE
:101A3C00F10A2C2DA035A10DA20DA30DA40DA50D01
:101A4C00A60DA70D0130F0007008F107A71F2F2D70
:101A5C00302D202D27082F02031D4E2D26082E0277
:101A6C00031D4E2D25082D02031D4E2D24082C027E
:101A7C00031D4E2D23082B02031D4E2D22082A0276
:101A8C00031D4E2D21082902031D4E2D200828026E
:101A9C00031C512D522D622D2008A8022108A93BB0
:101AAC002208AA3B2308AB3B2408AC3B2508AD3BE2
:101ABC002608AE3B2708AF3BA736A60CA50CA40CFA
:101ACC00A30CA20CA10CA00C0130F102031D6F2D74
:101ADC00702D302D72080319742D752D932DA809B6
:101AEC00A909AA09AB09AC09AD09AE09AF09A80A45
:101AFC00031D932DA90A031D932DAA0A031D932DD3
:101B0C00AB0A031D932DAC0A031D932DAD0A031DC7
:101B1C00932DAE0A031D932DAF0A20002808A000B8
:101B2C002908A1002A08A2002B08A3002C08A40055
:101B3C002D08A5002E08A6002F08A70008002000DD
:101B4C008D114030F3000030F2000030F100003015
:101B5C00F0006E08F7006D08F6006C08F5006B08D5
:101B6C00F4008A31AA228D310318BD2DBE2DF42D1F
:101B7C0020006E08DE006D08DD006C08DC006B08D0
:101B8C00DB008A3135228D3121002B0820005C06C8
:101B9C00031DD42D21002A0820005B060319D72D24
:101BAC00D82DF42D0030E6009030E7006E08DE00F2
:101BBC006D08DD006C08DC006B08DB008A31352217
:101BCC008D3120005C08E9005B08E800D7308931D2
:101BDC0033218D31D7308831E8208D314030F300FE
:101BEC000030F2000030F1000030F00020006E08F0
:101BFC00F7006D08F6006C08F5006B08F4008A31EC
:101C0C00AA228D3103180B2E0C2E772E4230F300A6
:101C1C004830F2000030F1000030F00020006E0877
:101C2C00F7006D08F6006C08F5006B08F4008A31BB
:101C3C00AA228D31031C232E242E772E20008D12E8
:101C4C006E08F7006D08F6006C08F5006B08F400E0
:101C5C004230F3004830F2000030F1000030F00068
:101C6C00853141258D3173082000B4007208B30012
:101C7C007108B2007008B1004130B0000030AF0004
:101C8C000030AE000030AD008031B2208D3120002C
:101C9C003008CE002F08CD002E08CC002D08CB002C
:101CAC003F30CA008030C9000030C8000030C70087
:101CBC00833109238D3120004A08DE004908DD00FC
:101CCC004808DC004708DB008A3135228D312000C2
:101CDC005B082100D500D6015508E5005608E60042
:101CEC00802E20000D128D160D17FF302100E500FF
:101CFC00FF30E60020006E08DE006D08DD006C0889
:101D0C00DC006B08DB008A3135228D3120005C0849
:101D1C00EC005B08EB0008002000BD003008C4009C
:101D2C003108C5003208C6003308C7003408C800A3
:101D3C003508C9003608CA003708CB004430860085
:101D4C0000308700473FB800B81BAD2EAF2E0130D6
:101D5C00B02E00302000B900BA013908C2003A0890
:101D6C00C300420843040319BC2EBD2EDB2EC4094C
:101D7C00C509C609C709C809C909CA09CB09C40AD2
:101D8C00031DDB2EC50A031DDB2EC60A031DDB2E2D
:101D9C00C70A031DDB2EC80A031DDB2EC90A031D4F
:101DAC00DB2ECA0A031DDB2ECB0A2100A51BDF2E5E
:101DBC00E02EE42EFD30A605FF30A7052508803A5D
:101DCC002000B80080303802031DEF2E01302100B6
:101DDC0024020318F22EF32EF92E01302000BE003F
:101DEC000030BF00012F210025082000BF0021007A
:101DFC0024082000BE00210023082000C10021007F
:101E0C0022082000C00042084304031D0E2F0F2F90
:101E1C00142F2100261D132F142F192FFF302000F3
:101E2C00C007FF30C13D1F302000CC000030CD007A
:101E3C002100CB01892FFF302000CC07FF30CD3D96
:101E4C000A30A000A101A201A301A401A501A601D1
:101E5C00A7014408A8004508A9004608AA0047089D
:101E6C00AB004808AC004908AD004A08AE004B086E
:101E7C00AF008C31BB248E3120002108F4002008E7
:101E8C00F30088318C208E317308303E2000B8006E
:101E9C004C08AC3E8600870138088100FF30BE0735
:101EAC00FF30BF3DFF30C007FF30C13D0A30A000FE
:101EBC00A101A201A301A401A501A601A701440847
:101ECC00A8004508A9004608AA004708AB00480826
:101EDC00AC004908AD004A08AE004B08AF00863193
:101EEC00F5268E3120002008C4002108C5002208E8
:101EFC00C6002308C7002408C8002508C900260806
:101F0C00CA002708CB0020004D08803AB80080306A
:101F1C003802031D932F01304C02031C962F972F70
:101F2C00C42F2000440845044604470448044904CF
:101F3C004A044B04031DA32FA42F212F3F08803AE2
:101F4C00B80080303802031DAD2F01303E0203185B
:101F5C00B02FB12F212F20004108803AB8008030DB
:101F6C003802031DBB2F01304002031CBE2FBF2FB4
:101F7C00C42F2100A618C32FC42F212F20004208E4
:101F8C004304031DCA2FCB2FD02F2100261DCF2F8A
:101F9C00D02FEC2FFF302000CC07FF30CD3D420876
:101FAC004304031DDA2FDB2FE02F2B30BB00003056
:101FBC00BC00E42F2D30BB000030BC003B08B80047
:101FCC004C08AC3E860087013808810020004C0884
:101FDC00AC3EB8003808A4004108A6004008A50093
:101FEC003D088931DC218E3120002508B100240800
:0C1FFC00B00008002C342534643400349C
:020000040001F9
:04000E00E2C9FFDC68
:00000001FF
